:1000000000000120750300005D0300005F03000095
:1000100061030000630300006503000000000000AE
:100020000000000000000000000000006703000066
:1000300069030000000000006B0300006D03000076
:100040006F0300006F030000C12F0000413E00005D
:100050006F0300006F0300006F0300006F030000D8
:100060006F0300006F0300006F0300006F030000C8
:100070006F0300006F0300006F0300006F030000B8
:100080006F0300006F0300006F0300006F030000A8
:100090006F0300006F0300006F0300006F03000098
:1000A0006F0300006F0300006F0300006F03000088
:1000B0006F0300006F03000000000000000000005C
:1000C0006F0300006F0300006F0300006F03000068
:1000D0006F0300006F0300006F03000000000000CA
:1000E0000000000000000000000000000000000010
:1000F0000000000000000000000000000000000000
:1001000000000000000000000000000000000000EF
:1001100000000000000000000000000000000000DF
:1001200000000000000000000000000000000000CF
:1001300000000000000000000000000000000000BF
:1001400000000000000000000000000000000000AF
:10015000000000000000000000000000000000009F
:10016000000000000000000000000000000000008F
:10017000000000000000000000000000000000007F
:10018000000000000000000000000000000000006F
:10019000000000000000000000000000000000005F
:1001A000000000000000000000000000000000004F
:1001B000000000000000000000000000000000003F
:1001C000000000000000000000000000000000002F
:1001D000000000000000000000000000000000001F
:1001E000000000000000000000000000000000000F
:1001F00000000000000000000000000000000000FF
:10020000354936480A1A02D0072291438D463449AF
:1002100034480A1A06D00722914381F30988022242
:1002200082F3148830483149314A00F044F83148AB
:100230003149324A00F03FF831483249324A00F041
:100240003AF832483249334A00F035F832483349F7
:10025000334A00F030F833483349344A00F02BF881
:1002600033483449344A00F026F8344834490022EF
:1002700000F02CF833483449002200F027F83348C6
:100280003349091A082902DB002202604160314A21
:1002900090471F481F49884205D00268043003B4C4
:1002A000904703BCF7E700208646EC46002000217B
:1002B000294A9047FEE7884207D0521A05D00378B2
:1002C00001300B700131013AF9D17047884202D0F8
:1002D00002700130FAE770470000012000E00020C2
:1002E00000000120000001203C77000000000020F9
:1002F0008C000020D0030000D0030000D468000070
:100300003C77000000000020000000203069000061
:100310003069000030690000306900003069000079
:100320003069000030690000306900003A77000051
:10033000C87700008C0000208C0000208C0000207A
:10034000FC0B0020FC0B0020FC0B0020FC0B002011
:10035000FC2B00209D0300009D570000FEE7FEE7F8
:10036000FEE7FEE7FEE7FEE7FEE7FEE7FEE7FEE765
:1003700000F002B8FFF7FCBF0F484FF007018843B9
:1003800085460E4880470E48016841F470010160BF
:10039000BFF34F8FBFF36F8FFFF732BF09480A4992
:1003A0000A4A884207D0521A05D0037801300B70F0
:1003B0000131013AF9D1704700000120115D0000C0
:1003C00088ED00E0306900000000002000000020FF
:1003D00000B585B00190019B002B0AD0074B43F07C
:1003E00001030393019B9B010293039B029898478F
:1003F00000E000BF05B05DF804FB00BF40690000ED
:1004000000B583B00190019B002B0AD04FF47A70A5
:10041000FFF7DEFF019B013B0193019B002BF5D110
:1004200000E000BF03B05DF804FB08B505F04AFC2E
:1004300000BF08BD00B589B0039002910192019BF5
:10044000002B33D00023079303230693029A079BC4
:100450001344019A1946002005F0E4FB0590079A21
:10046000059B13440793019A059BD31A0193059B9F
:10047000002B13D10F4B1B7883F00103DBB2002B51
:1004800013D10120FFF7BCFF069B013B0693069B9F
:10049000002B03D1074B00221A7007E0054B012205
:1004A0001A70019B002BD1D100E000BF00BF09B042
:1004B0005DF804FB8C00002000B585B0039002912C
:1004C000054B00934023054A0299039800F012F867
:1004D00000BF05B05DF804FB35040000900000206B
:1004E00082B0019000BF02B0704782B0019000BF9F
:1004F00002B0704700B5A1B0059004910392029339
:10050000049802F0EFF9039B1593029B16930023C6
:10051000179300238DF8603000231993229B1A93C0
:1005200000231F930FA91F9B0822049802F0B4FA1E
:1005300008231F93119B1293BDF84030ADF84C3047
:10054000BDF84230ADF84E3000238DF851309DF8A3
:100550003C3003F00303DBB2012B26D10F9BC3F326
:1005600095231C939DF83C30C3F3C203DBB28DF896
:100570005030BDF83C30C3F38313DBB21B931B9B9D
:100580009A0009A91F9B049802F086FA1B9B9B0006
:100590001F9A13441F9312AA09A915AB009313467F
:1005A0001B9A1C9800F0EEFF2FE09DF83C3003F002
:1005B0000303DBB2022B28D1BDF83E30C3F389130D
:1005C0009BB21E939DF83C30C3F3C203DBB28DF89F
:1005D00050301E9B082B28BF08231D9307A91F9B83
:1005E0001D9A049802F058FA1F9A1D9B13441F93FA
:1005F0001E9A1D9BD31A1E9315AB12AA07A81D990C
:1006000001F062F81E9B002BE3D1049802F079F907
:1006100000BF21B05DF804FB00B583B00190019BE1
:100620001B781A460C4B9B5C002B05D0019B0433B6
:10063000184604F0DFFD0BE0019B1B781A46064BC1
:100640009B5C002B04D1019B0C33184603F0A2FFE6
:1006500000BF03B05DF804FBDC06002000B587B0E6
:100660000390029113468DF8073000230593039BF6
:100670001B781A46114B9B5C002B09D0039B04335B
:100680009DF807200299184604F00AFE05900FE035
:10069000039B1B781A46094B9B5C002B08D1039BDC
:1006A0000C339DF807200299184603F0EBFF0590E4
:1006B000059B184607B05DF804FB00BFDC06002070
:1006C00082B001900091034B01221A7000BF02B06A
:1006D000704700BF1001002030B58DB003468DF883
:1006E00007301A4B02AC1D460FCD0FC495E80F0022
:1006F00084E80F00062302934FF0FF3303934FF07B
:10070000FF3304934FF0FF3305934FF0EB730893DF
:100710009DF80730002B01D00D4A00E0002202AB0B
:1007200019460C4802F0ECFB0B900B9B0A930A9BBA
:10073000002B04D0084A43210A9801F0D7F9074A50
:100740009DF80730137000BF0DB030BD8869000000
:10075000C1060000000000204869000011010020CF
:1007600000B583B001238DF807309DF80730184697
:10077000FFF7B2FF00BF03B05DF804FB00B589B01E
:10078000039002910192019B8DF81F30124B0022C1
:100790001A709DF81F301A4602991048FFF75EFF45
:1007A0000690069B0593059B002B04D00C4A532111
:1007B000059801F09BF900BF0A4B1B78002B07D06E
:1007C000054B1B78DBB283F00103DBB2002BF3D1C6
:1007D00000BF09B05DF804FB1001002000000020FC
:1007E000486900001101002000B585B00390029116
:1007F000054B00934023054A02990398FFF77AFEC0
:1008000000BF05B05DF804FB7D070000D0000020AC
:1008100082B0019000BF02B07047000000B583B005
:1008200001900548FFF7F8FE0020FFF755FF00BFD5
:1008300003B05DF804FB00BF0000002082B001900F
:10084000019BDB6801225A7100BF02B070470000B3
:1008500000B583B04FF0FF330193FFF7E6FD0421AD
:10086000114800F0A9FD0190019B002B03DA0F490C
:10087000412001F02EFA0C48FFF7E0FFFFF770FF70
:1008800004210B4800F098FD0190019B002B03DA36
:100890000649482001F01DFA0548FFF7CFFF00BFC9
:1008A00003B05DF804FB00BFFC680000D8690000DD
:1008B0000C69000000B583B001900091019B1B689A
:1008C0001B6800990198984700BF03B05DF804FBCE
:1008D00000B583B00190019B1B685B680198984745
:1008E00000BF03B05DF804FB00B583B00190019B2D
:1008F0001B689B680198984700BF03B05DF804FB34
:1009000082B001900B468DF80330019BDB689DF8A7
:1009100003201A7100BF02B0704782B00190019BA2
:10092000DB681B79184602B0704782B00190019BCA
:10093000DB6801225A7100BF02B0704782B001909B
:10094000019BDB685B79184602B0704700B585B043
:1009500001900091154BFF229A60144B00221A60FF
:10096000124B00225A60114B0022C3F818240F4B7F
:100970000022C3F814240D4B002283F820240C48D5
:1009800001F014FF0390039B002B01D0039B08E0B0
:10099000084802F0A1F8084A084BD31ADB08029372
:1009A0000023184605B05DF804FB00BF7C02002060
:1009B0001C6900001C6A0000FC680000D46800008C
:1009C000024A034BD31ADB0818467047FC68000044
:1009D000D468000000B587B001900B468DF8033055
:1009E0009DF80330002B1FD0FFF7EAFF049000238F
:1009F000059313E0059B9B000E4A13440393039B4E
:100A00001B881A46019B1B689A4204D1019B059AD8
:100A10001A60002309E0059B01330593059A049BA6
:100A20009A42E7D3052300E00023184607B05DF89B
:100A300004FB00BF0000002000B585B001900B460C
:100A40008DF803309DF8032001AB11461846FFF7DF
:100A5000C1FF0346002B07D1019BDB00054A13446D
:100A60000393039B1B6800E00023184605B05DF864
:100A700004FB00BFD468000084B001900B468DF8E1
:100A80000330019BDB00174A134402939DF80330A7
:100A9000013B032B1CD801A252F823F0AD0A000041
:100AA000B50A0000BD0A0000C70A000002238DF845
:100AB0000F3011E004238DF80F300DE0029B1B79FD
:100AC0008DF80F3008E0029B5B798DF80F3003E062
:100AD00000238DF80F3000BF9DF80F30184604B08A
:100AE000704700BFD468000084B0019000910023DB
:100AF0008DF80F30019B1B7803F00403DBB2002B51
:100B000024D0019B1B78C3F30103DBB2012B02D07D
:100B1000022B0CD017E0009B1B68019A1288C2F3CD
:100B20008312D2B213449A1C009B1A600BE0009B04
:100B30001B68019A5288C2F3891292B213449A1C1C
:100B4000009B1A6000BF01238DF80F309DF80F3015
:100B5000184604B07047000000B58BB00023ADF814
:100B600026303E4801F043F93D4801F040F93D4B45
:100B70005B6804933B4B9B680693049A069B134067
:100B800002339B00374A13440433089304AB1946DD
:100B90000898FFF7A9FF0346002B09D0049A069B8B
:100BA000134002339B002F4A134404330893EDE7AC
:100BB00000BF0023079311E0049B5A1C0492069A7D
:100BC0001340079A920001A90A44264902339B0068
:100BD0000B445B681360079B01330793079B012B52
:100BE000EAD99DF80430C3F30103DBB2012B10D026
:100BF000022B1CD1BDF80A30ADF82630BDF8063006
:100C0000C3F389139BB203339A08049B13440493E0
:100C100013E0BDF80A30ADF82630BDF80430C3F358
:100C20008313DBB21A46049B1344049305E00E4978
:100C30004FF4BF7001F04DF800BF094801F0E3F830
:100C40000590059B002B02D0049B064A5360BDF81B
:100C5000263018460BB05DF804FB00BF9406002058
:100C6000900600207C0200202C6A000000B585B0B0
:100C70000021074801F044F80390039B0293029B74
:100C800083F310030193019B184605B05DF804FB44
:100C90009806002000B589B003900291019200935C
:100CA000039B1B0C0793FFF7E1FF0690FFF788FEFD
:100CB0000246079B934204D3214940F2A31001F05E
:100CC00008F8069B1904009B5A1C0A9B1340079ABC
:100CD0000A431C4902339B000B445A60009A0A9B4A
:100CE000134002339B00174A134404330593039BBC
:100CF00003F00703D9B2059A137861F3C5031370A3
:100D0000019B03F00F03D9B2059A138861F389138D
:100D10001380029BC3F31501059A136861F39F23A7
:100D20001360059A1378012161F301031370059A8A
:100D300013786FF38203137000BF09B05DF804FBF2
:100D40002C6A00007C02002000B58BB00390029159
:100D500013468DF80730039B0233089301238DF867
:100D60001F30002000F06EFF3E4B1A68029B1A6095
:100D70003C4B9A683B4B59683A4B1B68CB1A13445F
:100D80000133099314E00121374801F000F8FFF71F
:100D9000E3FE05900599344800F0F9FF314B9A685D
:100DA000304B59682F4B1B68CB1A134401330993FE
:100DB000089A099B9A42E6D89DF81F30002B48D02C
:100DC000002304939DF80730002B17D09DF81030B6
:100DD000012262F301038DF810309DF8103043F0CA
:100DE00004038DF81030039B03F00F03DAB2BDF853
:100DF000103062F38913ADF8103016E09DF8103012
:100E0000022262F301038DF810309DF8103043F098
:100E100004038DF81030039BC3F309039AB2BDF8A5
:100E2000123062F38F13ADF812300E4B1A680D4B6F
:100E30009B68134002339B000A4A13440433069311
:100E4000049A069B1A60074B1A68089B1344054ACC
:100E50001360002000F00AFF9DF81F3018460BB009
:100E60005DF804FB7C0200209806002000B58BB0E2
:100E700005900491039202931F4B9B68079306AB66
:100E8000012219460298FFF75FFF0346002B24D08A
:100E9000069B023309930023089311E0089B9B00F3
:100EA000039A1A44099B591C099107990B4012682F
:100EB000114902339B000B445A60089B013308938D
:100EC000089A029B9A42E9D3069A079B009313461D
:100ED000029A04990598FFF7DDFE074B93F820343A
:100EE000002B05D000BF00F065F80346002BFAD1B7
:100EF00000BF0BB05DF804FB7C02002000B583B09E
:100F0000019000910023002200990198FFF7AEFFA5
:100F100000BF03B05DF804FB00B587B003900291F9
:100F20000192019B059305AA012302990398FFF7FB
:100F30009DFF00BF07B05DF804FB00B587B00390CC
:100F4000029101920093019B0493009B059304AAD4
:100F5000022302990398FFF789FF00BF07B05DF8ED
:100F600004FB00B58BB00390029101920093019BAA
:100F70000593009B06930C9B07930D9B08930E9B78
:100F8000099305AA052302990398FFF76FFF00BF95
:100F90000BB05DF804FB0000054B5A68044B1B685E
:100FA0009A420CBF01230023DBB21846704700BFF2
:100FB0007C02002000B599B0FFF7EEFF0346002B3E
:100FC00001D00023B7E19B4B0022C3F81824BFF3E4
:100FD0004F8F00BF974B5B680493964B9B681093B1
:100FE000049A109B134002339B00924A134404332B
:100FF0001193002317930023169300230F9304AB40
:1010000019461198FFF770FD0346002B19D0894B44
:10101000D3F81834002B14D1864B1A68049B9A42DB
:1010200005D8844B1B68834A5360002383E1049AEC
:10103000109B134002339B007E4A134404331193E8
:10104000DDE70023159311E0049B5A1C0492109ACB
:101050001340159A920001A90A44764902339B0075
:101060000B445B681360159B01331593159B012B93
:10107000EAD99DF8043003F00303DBB2022B40F001
:101080009C80BDF80630C3F389139BB20D93BDF865
:101090000630C3F389139BB2502B28BF50239BB259
:1010A0000C930C9BC3F309039AB2BDF8063062F3AC
:1010B0008F13ADF806300C9B08330B939DF804306A
:1010C000C3F3C203DBB20F930B995B4801F079FBCA
:1010D0001790179B002B00F0D180179801F002FCAD
:1010E00001A9169B0822179801F0B8FC169B08333B
:1010F0001693049BDA43109B134001339B000A9321
:101100000C9A0A9B9A4242D90A9B002B08D0049A57
:10111000109B134002339B00464A1344043300E003
:10112000464B08930A9B002B02D00A9BDBB201E0DE
:101130000C9BDBB28DF81F300A9B002B01D03F4B7C
:1011400000E0002306930A9B002B06D00C9BDAB22A
:101150000A9BDBB2D31ADBB200E000238DF8173014
:101160009DF81F20169B0899179801F077FC9DF8B1
:101170001F30169A13441693069B002B16D09DF829
:101180001720169B0699179801F068FC0EE0049A48
:10119000109B134002339B00264A134404330993E7
:1011A000169B0C9A0999179801F058FC0D9B033374
:1011B0009A08049B1344049360E09DF8043003F004
:1011C0000303DBB2012B59D1BDF80430C3F3831301
:1011D000DBB2062B28BF0623DAB2BDF8043062F377
:1011E0008913ADF80430BDF80430C3F38313DBB2C8
:1011F00002330E939DF80430C3F3C203DBB20F93A6
:101200000E9B9B0019460C4801F0DBFA1790179BC8
:10121000002B33D0179801F065FB01A9169B08221B
:10122000179801F01BFC169B0833169300231593A7
:101230001BE000BF7C0200201C6900008802002027
:10124000049B5A1C0492109A134002339B003C4AA0
:101250001344191D169B0422179801F0FFFB169BDF
:1012600004331693159B01331593BDF80430C3F373
:101270008313DBB21A46159B9342E1D3179B002BD5
:1012800039D02F4BD3F8103414932D4BD3F8183496
:10129000002B1BD0179801F034FB46E000238DF89B
:1012A0004F301498FFF74AFB0346002B02D001236E
:1012B0008DF84F309DF84F30002B03D017991498BC
:1012C000FFF7F8FA149BDB681B681493149B002B40
:1012D000E4D1179801F015FB002000F0B3FC184B87
:1012E000D3F81834002B02D1049B154A5360002018
:1012F00000F0BCFC19E0124BD3F81034129306E056
:101300001298FFF7F1FA129BDB681B681293129B8D
:10131000002BF5D10B4A0C4BD31ADB081B0443F00E
:1013200002030A491846FFF7E9FDFFF735FE0346B9
:1013300083F00103DBB2184619B05DF804FB00BF6F
:101340007C020020F4680000D4680000686A000095
:1013500000B585B00023039323E0164BD3F8103477
:10136000029301238DF807300FE00298FFF7D5FABA
:1013700003461A46039B934203D100238DF807309E
:1013800006E0029BDB681B680293029B002BECD1FA
:101390009DF80730002B01D0039B07E0039B01332E
:1013A0000393039B092BD8DD4FF0FF33184605B09C
:1013B0005DF804FB7C02002000B585B001900B466F
:1013C0008DF80330FFF7C4FF0390039BB3F1FF3F99
:1013D00001D1039B22E0039BDBB219460198FFF782
:1013E0008FFA104BD3F81034002B08D10D4A019B13
:1013F000C2F81034019BDB6800221A600DE0094B33
:10140000D3F81034DA68019BDB6812681A60054B68
:10141000D3F81034DB68019A1A60039B184605B0B4
:101420005DF804FB7C02002000B583B00D4BD3F8BF
:10143000103401930B4B012283F8202409E001981A
:10144000FFF773FA0198FFF743FA019BDB681B680B
:101450000193019B002BF2D100BF00BF03B05DF8E8
:1014600004FB00BF7C02002082B00190009100BF0D
:1014700002B0704710B584B003900291039BDB88E3
:10148000002B0AD0039BDB881A461F4B00931346A0
:101490001E4A1F49029800F0E5FD039B1B7A052BAD
:1014A0002ED0039B5B7A002B12D0039B9B881A469D
:1014B000039B1B7A19461046FFF7DEFA03461A46CD
:1014C000144B53F822301A461349029800F0CAFD13
:1014D000039B1B6819460298FFF7C6FF039B1B7A04
:1014E0001A460E4B53F82240039B9B880021184656
:1014F000FFF7A2FA034622460949029800F0B2FD1E
:1015000000BF04B010BD00BF9C6A0000AC6A0000C0
:10151000E46A000038000020FC6A0000240000207B
:10152000006B000000B585B00390029113468DF862
:101530000730039B1B7A052B0FD0039B5B7A002B94
:1015400006D00D4B1B681A460C49029800F08AFD24
:101550000B49029800F086FD07E09DF80730002B4C
:1015600003D00749029800F07DFD029800F058FD75
:1015700000BF05B05DF804FB38000020FC6A0000E5
:101580000C6B000030B58BB0079006910592049368
:101590000E9B1B7B8DF827300E9B00221A730E9931
:1015A0000498FFF767FF059B062B7FD801A252F82E
:1015B00023F000BFD1150000DB150000EB15000083
:1015C000FF1500001D1600004516000075160000EE
:1015D00007990E9800F046FD69E0069B1B681A46C5
:1015E00007990E9800F03EFD61E0069B1A68069B85
:1015F00004331B6807990E9800F034FD57E0069BF2
:101600001A68069B04331968069B08331B6800930D
:101610000B4607990E9800F025FD48E0069B1968D7
:10162000069B04331868069B08331B68069A0C3225
:1016300012680192009303460A4607990E9800F03B
:1016400011FD34E0069B1868069B04331C68069B5A
:1016500008331B68069A0C32126806991031096823
:101660000291019200932346024607990E9800F0DA
:10167000F9FC1CE0069B1C68069B04331D68069B56
:1016800008331B68069A0C321268069910310968F3
:1016900006981430006803900291019200932B4643
:1016A000224607990E9800F0DDFC00E000BF002202
:1016B0000E990498FFF736FF0E9B9DF827201A73AA
:1016C00000BF0BB030BD00BF00B587B003900291E2
:1016D00001920093029B082B60D8009B1B7B8DF826
:1016E0001330009B00221A7300990198FFF7C2FE85
:1016F0000023059314E0059A029B9A4209D2039AAB
:10170000059B13441B781A462649009800F0AAFC52
:1017100003E02549009800F0A5FC059B01330593E3
:10172000059B072BE7D92149009800F09BFC00237B
:10173000059326E0059A029B9A421BD2039A059BC9
:1017400013441B788DF812309DF812307E2B0AD886
:101750009DF81230184605F03DF80346002B02D0E4
:101760009DF8123000E02E231A461149009800F02F
:1017700079FC03E00F49009800F074FC059B0133ED
:101780000593059B072BD5D9012200990198FFF7F6
:10179000C9FE009B9DF813201A7300E000BF07B03C
:1017A0005DF804FB106B0000186B00001C6B000060
:1017B000206B0000246B000000B583B00190019BFA
:1017C0001B681F2B04D9054940F2CD1000F081FAA7
:1017D0004FF0A043184603B05DF804FB286B0000EF
:1017E00000B585B00190084611461A4603468DF8AB
:1017F00003300B468DF8023013468DF8013001ABF3
:101800001846FFF7D9FF03909DF803209DF802309A
:101810005B001A439DF801309B001A439DF8183075
:101820001B0242EA03019DF81C301B04019A194374
:10183000039B02F5E07243F8221000BF05B05DF88B
:1018400004FB00B585B003900023019300230093AF
:101850000023012201210398FFF7C2FF00BF05B05A
:101860005DF804FB00B585B003900B468DF80B3096
:101870009DF80B30002201920022009200220021EC
:101880000398FFF7ADFF00BF05B05DF804FB00B59E
:1018900085B0019001AB1846FFF78EFF0390019BC6
:1018A000012202FA03F31946039800F02AF800BF58
:1018B00005B05DF804FB00B585B0019001AB18469A
:1018C000FFF77AFF0390019B012202FA03F3194606
:1018D000039800F020F800BF05B05DF804FB00B5E8
:1018E00083B001900091009B002B03D10198FFF77A
:1018F000E2FF02E00198FFF7CAFF00BF03B05DF806
:1019000004FB82B001900091019B009AC3F8082566
:1019100000BF02B0704782B001900091019B009A15
:10192000C3F80C2500BF02B07047000000B583B0BB
:101930000190019B032B03D90749412000F0C9F90D
:10194000064A019B13441B7800211846FFF7C7FF86
:1019500000BF03B05DF804FB506B0000746B000027
:1019600000B583B00190019B032B03D907494720A1
:1019700000F0AFF9064A019B13441B780121184679
:10198000FFF7ADFF00BF03B05DF804FB506B000034
:10199000746B000000B583B00023019305E001984B
:1019A000FFF7DEFF019B01330193019B032BF6D967
:1019B00000BF00BF03B05DF804FB000000B583B0BA
:1019C0000023019309E0094A019B13441B78184640
:1019D000FFF737FF019B01330193019B032BF2D9E2
:1019E000FFF7D8FF00BF03B05DF804FB746B000085
:1019F00000B583B0002301930AE0094A019B134418
:101A00001B7803211846FFF72DFF019B013301933B
:101A1000019B032BF1D900BF00BF03B05DF804FBAD
:101A2000786B000000B583B00190019B03F00103C7
:101A3000002B01D0FFF7C2FF019B03F00203002B34
:101A400001D0FFF7D5FF00BF03B05DF804FB000035
:101A500086B003900291019201238DF817309DF812
:101A60001730214A039B13601F4A029B53601E4A92
:101A7000019B9360039B44F20102934213D0039BAA
:101A800044F20202934221D1019B174AD360164BC4
:101A9000DB681B881A46144B9A61134BDB685B6842
:101AA000114AD36112E0019B0F4A13610E4B1B696F
:101AB0009B680D4A53610C4B1B691B680A4A936172
:101AC000094B1B695B68084AD36100BF72B600BF4F
:101AD00000BF9DF81730DBB2002BFAD162B600BF11
:101AE00000BF06B0704700BFA006002000B583B05D
:101AF00002900091019244F2010071466A4600F0A2
:101B000003F803B000BD00BF30B58BB0079006915D
:101B1000059272B600BFFFF787FC00BFFFF74AFAD5
:101B20000346002BFAD1079B44F20102934216D0E0
:101B3000079B44F2020293423ED1059B09932C4A33
:101B40002C4BD31ADB081B0443F00100099B5B6894
:101B50001A46099B1B882849FFF7EFF939E0059BD6
:101B60000893234A234BD31ADB081B0443F00104D8
:101B7000089B9D68089B9B68184600F0CBFF0346B6
:101B80001846089B5B681946089B1B68069A0292D8
:101B90000193009103462A4618492046FFF7E1F9D0
:101BA000134A144BD31ADB081B0443F001031449F6
:101BB0001846FFF7A3F90CE00D4A0E4BD31ADB08C9
:101BC0001B0443F00103069A0E491846FFF7A4F9D7
:101BD00000BF0D4B1B6803F00103002B00D000BEBB
:101BE000059A06990798FFF733FF00BF0BB030BD89
:101BF000F4680000D46800007C6B0000986B000063
:101C0000C06B0000D46B0000F0ED00E072B600BFC6
:101C1000034B1B680133024A136000BF704700BFCB
:101C2000C0060020064B1B68013B054A1360044BAD
:101C30001B68002B01D162B600BF00BF704700BF18
:101C4000C006002000B583B0019000F025F80346DF
:101C5000012B03D00449432000F03BF8FFF7D6FFE7
:101C600000BF03B05DF804FBEC6B000000B583B06F
:101C700003468DF8073000F00FF80346012B03D020
:101C80000449512000F025F8FFF7CCFF00BF03B056
:101C90005DF804FBEC6B000084B0EFF30583019367
:101CA000019BC3F308030393039B002B0DD1EFF3B8
:101CB00014830093009B0293029B03F00103002B0B
:101CC0000CBF01230023DBB200E00123184604B05F
:101CD000704700B585B003460091ADF80630BDF8F9
:101CE0000630ADF80830009B039302AB1A46002182
:101CF00044F20200FFF708FF00BF05B05DF804FBE7
:101D000010B487B001900091019B009A53E8004FF6
:101D1000104643E8000191F0000FF7D105940490BC
:101D20000391059B184607B05DF8044B704710B44B
:101D300087B001900091019B009A53E8004F44EA5C
:101D4000020043E8000191F0000FF6D105940490E1
:101D50000391049B184607B05DF8044B704710B41C
:101D600087B001900091019B009A53E8004F04EA6C
:101D7000020043E8000191F0000FF6D105940490B1
:101D80000391059B184607B05DF8044B704710B4EB
:101D900087B001900091019B009A53E8004F04EB3B
:101DA000020043E8000191F0000FF6D10594049081
:101DB0000391049B184607B05DF8044B704710B4BC
:101DC00087B001900091019B009A53E8004FA4EB6B
:101DD000020043E8000191F0000FF6D10594049051
:101DE0000391049B184607B05DF8044B704700B59B
:101DF00083B0019001210198FFF799FF034618462F
:101E000003B05DF804FB00B583B001900021019898
:101E1000FFF7A5FF0346184603B05DF804FB00007A
:101E200000B583B001900B468DF80330019B002B69
:101E300003D10849E820FFF74CFF019BDA689DF8C1
:101E400003300199098A01FB03F31344184603B0D8
:101E50005DF804FB246C000000B583B00190009194
:101E6000019B002B03D10849F520FFF732FF009BAF
:101E7000019AD2689B1A019A128AB3FBF2F3DBB281
:101E8000184603B05DF804FB246C000000B585B073
:101E90000190019B002B01D10E234CE0019B1B689C
:101EA000002B03D12649FF20FFF713FF019B5B683E
:101EB000002B04D122494FF48070FFF70AFF019BE9
:101EC0009B68002B04D11E4940F20110FFF701FF6F
:101ED000019BDB68002B04D119494FF48170FFF797
:101EE000F8FE019B1B8A002B04D1154940F2031018
:101EF000FFF7EFFE019B9A68019B5B68D31A8DF890
:101F00000F30019B1B68019A52681A6007E0019B21
:101F10001A681368591C11609DF80F201A709DF8FB
:101F20000F305A1E8DF80F20002BF0D1019B1B683B
:101F300000221A710023184605B05DF804FB00BFAB
:101F4000246C000000B585B00190019B002B04D1EA
:101F50001C494FF49270FFF7BCFE0023039300204E
:101F6000FFF770FE019B1B681A68019B5B689A4231
:101F70001FD9019B1B681A68013A1A601B681B78FD
:101F800019460198FFF74CFF0390019B9A68019B4B
:101F90001B681B68D31A8DF80B30019B1B681B79DB
:101FA0009DF80B209A4204D9019B1B689DF80B20D9
:101FB0001A710020FFF75AFE039B184605B05DF822
:101FC00004FB00BF246C000010B584B001900091A8
:101FD000019B002B04D1114940F24710FFF779FE15
:101FE000009B002B04D10D494FF4A470FFF771FE44
:101FF000009B03930020FFF725FE019B1B681C68D4
:10200000621C1A6003990198FFF726FF03462370AC
:102010000020FFF72BFE00BF04B010BD246C0000B1
:1020200000B583B00190019B002B03D10C493120F6
:10203000FFF74FFE019B9B68002B0CD0019B5B6957
:10204000019A1069019A1168019A92689847019B58
:1020500000229A6000E000BF03B05DF804FB00BFFF
:10206000586C00000EB400B584B00190019B002BA9
:1020700003D118494220FFF72CFE019B5B69002B1E
:1020800003D114494320FFF724FE019B1B68002B5A
:1020900003D110494420FFF71CFE019B5B68002B15
:1020A00003D10C494520FFF714FE059B002B0AD0F5
:1020B0000023039306AB039303AB1A4605990198DB
:1020C00000F0B0F900E000BF04B05DF804EB03B02D
:1020D000704700BF586C000000B583B001900B46FC
:1020E0008DF80330019B1A68019B9B68581C01996D
:1020F000886013449DF803201A70019B9A68019B25
:102100005B689A4202D30198FFF78AFF00BF03B0D1
:102110005DF804FB00B587B0039002910192009333
:1021200000230593009B03F00103002B24D00BE058
:10213000029B01330293059B013305939DF81330F5
:1021400019460398FFF7C8FF029B1B788DF81330E0
:102150009DF81330002BEBD106E0019B013B01936E
:1021600020210398FFF7B8FF019A059B9A422ED9C8
:10217000019B002BF1D12AE0029B002B0BD002988F
:1021800004F078FB059006E0019B013B01932021C0
:102190000398FFF7A1FF019A059B9A420FD9019B73
:1021A000002BF1D10BE0029B01330293059B01331D
:1021B00005939DF8133019460398FFF78DFF029B96
:1021C0001B788DF813309DF81330002BEBD100BF36
:1021D00007B05DF804FB000000B589B003900291E0
:1021E00001920093029B07930123069307E0079A4D
:1021F000019BB2FBF3F30793069B01330693079A07
:10220000019B9A42F3D2009A069B9A4201D9009B05
:1022100006930B9B03F00103002B22D10A9B002B9A
:102220001FD00B9B03F00203002B06D0009B002B5A
:1022300003D130238DF8173002E020238DF81730BA
:1022400008E00A9B013B0A939DF817301946039852
:10225000FFF742FF0A9B002B03D0069A0A9B9A4283
:10226000EFD301230793009B012B03D9009B013B74
:10227000009309E0029A079BB2FBF3F30493049ADC
:10228000019B9A4200D205E0079B019A02FB03F3EF
:102290000793E8E7029A079BB2FBF3F30493049BCE
:1022A000079A02FB03F3029AD31A0293154A049B7E
:1022B00013441B7819460398FFF70EFF079A019BFA
:1022C000B2FBF3F30793079B002BE3D10B9B03F0C7
:1022D0000103002B11D00A9B002B0ED006E00A9BB5
:1022E000013B0A9320210398FFF7F6FE0A9B002B7F
:1022F00003D0069A0A9B9A42F1D300BF09B05DF859
:1023000004FB00BFB06C000000B589B005900491DB
:1023100003920293049B002BB8BF5B4206930123F8
:10232000079307E0039B069A92FBF3F30693079B40
:1023300001330793039B069A9A42F3DA029A079BAA
:102340009A4201D9029B07930A9B002B0AD0049B57
:10235000002B04DB0B9B03F00403002B02D00A9B31
:10236000013B0A930B9B03F00203002B02D0029B5C
:10237000002B16D00B9B03F00103002B11D10A9BFD
:10238000002B0ED006E00A9B013B0A932021059802
:10239000FFF7A2FE0A9B002B03D0079A0A9B9A42E2
:1023A000F1D3049B002B07DA049B5B4204932D219D
:1023B0000598FFF791FE08E00B9B03F00403002B48
:1023C00003D02B210598FFF787FE0B9B03F0020338
:1023D000002B19D00B9B03F00103002B14D1029B9F
:1023E000002B11D10A9B002B0ED006E00A9B013B6B
:1023F0000A9330210598FFF76FFE0A9B002B03D04C
:10240000079A0A9B9A42F1D304990B9B01930A9B6A
:102410000093029B039A0598FFF7DEFE00BF09B008
:102420005DF804FB00B58FB0059004910392059B05
:10243000002B04D1B64940F25220FFF74AFC059B1D
:102440005B69002B04D1B2494FF41570FFF741FCD2
:10245000059B1B68002B04D1AD4940F25520FFF7C6
:1024600038FC059B5B68002B04D1A94940F256203B
:10247000FFF72FFC049B002B00F09381049B1B783B
:102480008DF83730049B013304939DF83730002BCF
:1024900000F07E819DF83730252B40F06D810023C0
:1024A0000A9301230C93049B1B788DF837309DF819
:1024B0003730302B0DD0302B1BDC2B2B11D02D2B9C
:1024C00017D10A9B43F001030A93049B0133049341
:1024D00012E00A9B43F002030A93049B0133049326
:1024E0000AE00A9B43F004030A93049B013304931C
:1024F00002E000230C9300BF0C9B002BD3D10023E0
:1025000009939DF837302A2B0CD1039B1B68191DAA
:10251000039A11601B68099A13440993049B0133C1
:1025200004931AE0049B1B788DF837309DF8373000
:102530002F2B12D99DF83730392B0ED8049B01333D
:102540000493099A13469B0013445B001A469DF8B6
:1025500037301344303B0993D3E700230B93049B9C
:102560001B788DF837309DF837302E2B1DD1049B0A
:1025700001330493049B1B788DF837309DF8373076
:102580002F2B12D99DF83730392B0ED8049B0133ED
:1025900004930B9A13469B0013445B001A469DF864
:1025A00037301344303B0B93E4E7049B1B788DF8E2
:1025B00037309DF837306C2B03D09DF83730682BBF
:1025C00007D1049B01330493049B1B788DF83730AB
:1025D000EFE79DF83730252B00F0C480252BC0F2A3
:1025E000C680782B00F3C380582BC0F2C080583BC4
:1025F000202B00F2BC8001A252F823F0EB26000051
:102600006F2700006F2700006F2700006F27000072
:102610006F2700006F2700006F2700006F27000062
:102620006F2700006F27000081260000A32600000E
:102630006F2700006F2700006F2700006F27000042
:10264000A32600006F2700006F2700006F270000FF
:102650006F2700006F2700006F2700003127000060
:102660006F2700006F270000152700006F2700006C
:10267000C72600006F2700006F270000EB26000030
:10268000039B1B68191D039A11601B680C930C9B1C
:102690008DF81F309DF81F3019460598FFF71CFD77
:1026A00066E0039B1B68191D039A11601B680C935D
:1026B0000A9B0193099B00930B9B0A220C99059896
:1026C000FFF722FE54E0039B1B68191D039A11605B
:1026D0001B680C930C990A9B0193099B00930B9B1D
:1026E0000A220598FFF778FD42E0039B1B68191D3D
:1026F000039A11601B680C930C990A9B0193099B28
:1027000000930B9B10220598FFF766FD30E000BF99
:10271000806C0000039B1B68191D039A11601B68E5
:1027200008930A9B099A08990598FFF7F3FC1FE0A4
:10273000039B1B68191D039A11601B680C933021C1
:102740000598FFF7C9FC78210598FFF7C5FC0C999F
:102750000023019308230093082310220598FFF714
:102760003BFD05E025210598FFF7B6FC00E000BF22
:10277000049B0133049305E09DF837301946059812
:10278000FFF7AAFC049B1B78002B7FF477AE00E0D8
:1027900000BF059B1B7B002B04D00598FFF740FC76
:1027A00000E000BF0FB05DF804FB00BF00B583B0D0
:1027B00001900198FFF76AFB0346184603B05DF8E5
:1027C00004FB00B58BB001900091019B1B8A043B78
:1027D0000793009A079B1344DA1C079BB2FBF3F3A1
:1027E0008DF81B300198FFF7ADFB0590059B002B82
:1027F00001D1002338E0059B00221A71059B0122BC
:102800005A71079B9AB2059BDA80059B09939DF844
:102810001B30013B0493099B019A1A600023089323
:102820001DE00198FFF78EFB0390039B002B0ED059
:10283000059B5B790133DAB2059B5A71099B039AB8
:102840001A60039B019A1A60039B099304E00598A0
:1028500000F00EF8002307E0089B01330893089A64
:10286000049B9A42DDD3059B18460BB05DF804FB30
:1028700000B58BB00190019B0793079B5B798DF8A6
:102880001B30019B08939DF81B30013B05930023EF
:10289000099305E0089B1B680893099B0133099382
:1028A000099A059B9A42F5D3089B1B680493019BE8
:1028B0000893002309930BE0089B1B680393089976
:1028C0000498FFF781FB039B0893099B013309934D
:1028D0009DF81B30099A9A42EED300BF00BF0BB09F
:1028E0005DF804FB00B585B00190019B0393039B49
:1028F000043301211846FFF74AFA00BF05B05DF81E
:1029000004FB00B587B00190019B0593059B043340
:1029100001211846FFF753FA0346039303AB0493D0
:10292000049B1B78002B02D10198FFF7A1FF00BF89
:1029300007B05DF804FB000000B591B00390029170
:1029400001920093039B002B03D14349B620FFF76C
:10295000C0F9039B0993039B0F93099BDB881A46DD
:10296000099B5B7903FB02F3043B0893009A089BE5
:102970009A4203D33849C420FFF7ABF9099BDB889F
:102980000793009B1A1D079BB2FBF3F30E93009B6A
:102990000433079AB3FBF2F2079901FB02F29B1A88
:1029A0000D93019B1A68009B1344089A9A4203D224
:1029B000089A009BD31A01E0019B1B680C93019BB2
:1029C0000C9A1A6005E00F9B1B680F930E9B013B4E
:1029D0000E930E9B002BF6D100230B93079A0D9BB1
:1029E000D31A0A930A9A0C9B934228BF13460A9360
:1029F0002AE0029A0B9B134406930F9A0D9B1344F3
:102A0000043305939DF84830002B05D00A9A0599A8
:102A1000069803F0E4FE04E00A9A0699059803F08C
:102A2000DEFE00230D930F9B1B680F930C9A0A9BED
:102A3000D31A0C930B9A0A9B13440B93079A0C9B83
:102A4000934228BF13460A930C9B002BD1D100BFA1
:102A500000BF11B05DF804FBC06C000000B589B088
:102A60000590049103920293039B079307AA002306
:102A70000093029B04990598FFF75EFF079B039A5A
:102A80009A4203D00349F620FFF723F900BF09B0AB
:102A90005DF804FBC06C000000B589B0059004919E
:102AA00003920293039B079307AA01230093029BBF
:102AB00004990598FFF740FF079B039A9A4204D0B8
:102AC00004494FF48070FFF704F900BF09B05DF8C6
:102AD00004FB00BFC06C000082B00190019B9B68AA
:102AE00000229A60019B9B6800221A61019B9B68EF
:102AF00000225A61019B9B680022DA60019B9B685F
:102B000000225A60019B9B6800221A6000BF02B03D
:102B10007047000000B585B00190019800F00EF8F4
:102B20000390039B002B01D0039B00E0024B18464F
:102B300005B05DF804FB00BFF46C000086B00190A6
:102B4000164B0593164B04931FE0049A059BD31A6A
:102B5000DB10DA0F13445B10DB00059A1344039378
:102B6000039B1B680293029A019B9A4202D9039B22
:102B700004930AE0029A019B9A4203D2039B083312
:102B8000059302E0039B5B6804E0059A049B9A426C
:102B9000DBD30023184606B0704700BFC8700000A2
:102BA000E071000000B585B00190019B002B0AD0B8
:102BB000074B43F001030393019B9B010293039B8B
:102BC0000298984700E000BF05B05DF804FB00BF25
:102BD0001072000000B583B00190019B1B681F2B91
:102BE00004D9054940F2CD10FFF773F84FF0A04328
:102BF000184603B05DF804FBE071000000B585B035
:102C0000019001AB1846FFF7E5FF0390019B0122FD
:102C100002FA03F31946039800F035F800BF05B037
:102C20005DF804FB00B585B0019001AB1846FFF7D5
:102C3000D1FF0390019B012202FA03F31946039886
:102C400000F02BF800BF05B05DF804FB00B585B0BF
:102C5000019001AB1846FFF7BDFF0390039800F009
:102C60000AF80246019B22FA03F303F00103184617
:102C700005B05DF804FB82B00190019BD3F81035DC
:102C8000184602B0704782B001900091019B009AF3
:102C9000C3F8082500BF02B0704782B001900091D0
:102CA000019B009AC3F80C2500BF02B0704700B525
:102CB00085B001904FF0A042019B1B6803F5E073C3
:102CC00040F20C6142F823104FF0A042019B5B6878
:102CD00003F5E07340F20C6142F82310019B1B687E
:102CE0001846FFF78BFF019B5B681846FFF786FFCE
:102CF0004FF0A042019B1B6803F5E07340F20D61A9
:102D000042F823104FF0A042019B5B6803F5E0738B
:102D100040F20D6142F823100420FFF743FF002327
:102D200003931EE0019B5B681846FFF78FFF034685
:102D3000002B03D0039B002B17D124E0019B1B68C1
:102D40001846FFF76FFF0420FFF72CFF019B1B685D
:102D50001846FFF753FF0420FFF724FF039B0133BE
:102D60000393039B082BDDDD00E000BF019B5B6844
:102D70001846FFF757FF0420FFF714FF019B5B681D
:102D80001846FFF73BFF05B05DF804FB00B589B0BE
:102D900001900091009B0793019B1B788DF80C30EC
:102DA000019B1B798DF81030019B5B798DF81130F8
:102DB000019B9B68DBB28DF81230019BDB68DBB2B4
:102DC0008DF81330019B1B690593019B5B6906938A
:102DD000074A079B52F823300649079A51F82210F8
:102DE00003AA1046984700BF09B05DF804FB00BF76
:102DF000C4060020CC06002000B587B003900291E5
:102E000001920093039B1B7805931249059B019A3D
:102E100041F823201049059B009A41F82320029B8A
:102E20005B7B002B02D00298FFF741FF0023049345
:102E3000039B181D019B002B01D0084A00E00022D3
:102E4000059B029900F08AFB0490049B184607B08A
:102E50005DF804FBC4060020CC0600208D2D000088
:102E600000B589B001900091009B0793019B1B78EE
:102E70008DF80C30019B5B680493019B9B68DBB26F
:102E80008DF81430019BDB680693074A079B52F8C4
:102E900023300649079A51F8221003AA1046984792
:102EA00000BF09B05DF804FBD4060020D80600205E
:102EB00000B589B001900091009B0793019B1B789E
:102EC0008DF80C30019B5B680493019B9B68DBB21F
:102ED0008DF81430019BDB680693074A079B52F874
:102EE00023300649079A51F8221003AA1046984742
:102EF00000BF09B05DF804FBD4060020D80600200E
:102F000030B58FB0039002910192039B1B780C9314
:102F100026490C9B019A41F82320029B1A692449F7
:102F20000C9B41F82320029B5B7F1946214A0C9B96
:102F300013440A461A70029B04AC1D460FCD0FC401
:102F400095E80F0084E80F000C9B089300230D9375
:102F5000039B1B781A46174B9B5C002B0DD0039BE1
:102F6000181D019B002B01D0134A00E0002204AB86
:102F7000194602F0D9F80D9014E0039B1B781A460D
:102F80000C4B9B5C002B0DD1039B03F10C00019BB0
:102F9000002B01D0094A00E0002204AB194601F0E1
:102FA0008FFA0D900D9B18460FB030BDD40600204F
:102FB000D8060020DC060020612E0000B12E0000A3
:102FC00008B5064B1B68002B03D105495120FEF7BD
:102FD00080FE024B1B68984700BF08BDE00600203A
:102FE0001C72000082B00190019B044A934201D1FF
:102FF000034B00E00023184602B070470020004059
:10300000E006002000B587B001900091019B002BE5
:1030100003D118497720FEF75CFE0198FFF7E2FF25
:103020000590059B002B1ED000238DF81330002047
:10303000FEF708FE059B1B79002B03D001238DF8BA
:10304000133005E0059B009A1A60059B01221A7156
:103050000020FEF70BFE9DF81330002B03D0112348
:103060000393039B02E000230393039B184607B0DE
:103070005DF804FB1C72000000B585B00190019B57
:10308000002B03D10A499B20FEF723FE0198FFF78E
:10309000A9FF0390039B002B05D0039B00221A601D
:1030A000039B00221A7100BF05B05DF804FB00BF4E
:1030B0001C72000082B003468DF807309DF807307F
:1030C00003F01F0205499DF907305B09012000FA52
:1030D00002F241F8232000BF02B0704700E100E097
:1030E00082B0034600918DF807309DF90730002B20
:1030F0000CDA009BDAB20C499DF8073003F00F039D
:10310000043B5201D2B20B441A7609E0009BDAB2BA
:1031100006499DF907305201D2B20B4483F80023CF
:1031200000BF02B0704700BF00ED00E000E100E02A
:1031300082B00190019B03F06043B3F1005F0CBFCC
:1031400001230023DBB2184602B0704782B0019021
:10315000019B1B0B5BB2184602B0704700B583B0F1
:1031600003460A468DF8073013468DF806309DF861
:103170000630072B03D908496B20FEF7AAFD9DF8FE
:1031800006209DF9073011461846FFF7A9FF00BF3A
:1031900003B05DF804FB00BF5072000000B583B0BF
:1031A00003468DF807309DF907301846FFF782FF78
:1031B00000BF03B05DF804FB82B001900B468DF8B0
:1031C00003309DF80330019A134401221A6000BFB6
:1031D00002B0704784B001900B46ADF80230BDF8E4
:1031E0000230019A134400221A60BDF80230019A9D
:1031F00013441B680393039B00BF04B0704782B065
:1032000001900B46ADF80230BDF80230019A13442C
:103210001B68002B14BF01230023DBB2184602B049
:10322000704782B001900091019B009AC3F804237B
:1032300000BF02B0704782B001900091019B009ADC
:10324000C3F8082300BF02B0704782B00190019B11
:103250000622C3F8002500BF02B0704782B001907B
:10326000019B0022C3F8002500BF02B0704784B064
:10327000039002910192039B029AC3F80825039BD5
:10328000019AC3F80C2500BF04B0704782B00190CA
:103290000091019B009AC3F8242500BF02B070473B
:1032A00084B00190019BD3F8C4340393019B039A2B
:1032B000C3F8C424039B184604B0704782B0019041
:1032C0000B468DF803309DF80320019BC3F8882539
:1032D00000BF02B0704784B0039002910192029A3D
:1032E000039BC3F84425039B019AC3F8482500BFFC
:1032F00004B0704784B0039002910192029A039B3C
:10330000C3F83425039B019AC3F8382500BF04B0E5
:10331000704782B001900091019B009AC3F800228F
:1033200000BF02B0704782B00190019BD3F84C35CA
:10333000184602B0704782B00190019BD3F83C352B
:10334000184602B0704782B00190019B0122C3F879
:10335000502500BF02B0704782B00190019B00224F
:10336000C3F8502500BF02B0704782B00190019BA6
:103370000122C3F8402500BF02B0704782B001901F
:10338000019B0022C3F8402500BF02B07047000037
:1033900000B583B00190019B1B681F2B04D9054920
:1033A00040F2CD10FEF795FC4FF0A043184603B055
:1033B0005DF804FB7872000000B585B00190084606
:1033C00011461A4603468DF803300B468DF802303D
:1033D00013468DF8013001AB1846FFF7D9FF039073
:1033E0009DF803209DF802305B001A439DF80130E0
:1033F0009B001A439DF818301B0242EA03019DF816
:103400001C301B04019A1943039B02F5E07243F838
:10341000221000BF05B05DF804FB84B001900323C7
:103420000393019B03F00103002B02D04FF40243EE
:103430000393019B03F00203002B02D048F2012307
:103440000393019B03F00403002B02D048F20223F4
:103450000393039B184604B07047000000B585B085
:103460000190009101238DF80F30009B1B7B032BF3
:1034700055D801A252F823F0EF34000007350000C0
:10348000C734000089340000009B9B68324A934295
:1034900007D10198FFF747FF0246009B1B699A423C
:1034A0000DD1009B9B6840F20222934239D10198D2
:1034B000FFF739FF0246009B5B699A4231D0002337
:1034C0008DF80F302DE00198FFF72DFF0246009B8D
:1034D0001B699A4207D10198FFF72DFF0246009B16
:1034E0005B699A421FD000238DF80F301BE00198D2
:1034F000FFF719FF0246009B1B699A4215D0002373
:103500008DF80F3011E00198FFF715FF0246009B80
:103510001B699A420BD000238DF80F3007E000BFE3
:1035200006E000BF04E000BF02E000BF00E000BF13
:103530009DF80F3083F00103DBB2002B05D001981A
:10354000FFF78CFE0198FFF780FE9DF80F301846BC
:1035500005B05DF804FB00BF0002040000B58BB0AD
:103560000590049103920293049B002B03D14A49D6
:10357000E220FEF7AEFB049B1A68049B5B689A424C
:1035800003D14549E320FEF7A4FB059B1B791A46AE
:10359000342303FB02F3414A13440893089B93F836
:1035A0002D30002B03D008230793079B70E0059B69
:1035B0001A68059B1B791946394B53F82130194677
:1035C0001046FFF71FFD0346002B03D0112307937E
:1035D000079B5DE0089B039A1A60089B029A5A6059
:1035E000089B00229A60089B002283F83020089BE9
:1035F000002283F82F20049B5A7B089B83F83220FB
:10360000049B1868002301930623009303230022E0
:103610000021FFF7D1FE049B586800230193062385
:103620000093032300220021FFF7C6FE059B1B68C1
:103630000993049B1968049B5B681A460998FFF775
:1036400016FE049B9B6819460998FFF71FFE089B0E
:103650001B68002B15D0059B1B681846FFF776FDED
:1036600003461A46049B1B7B19461046FFF776FD5E
:10367000059B1B681846FFF769FD03461846FFF7D0
:103680008DFD089B012283F82D2000230793079BC3
:1036900018460BB05DF804FBA8720000E806002095
:1036A000D872000000B585B00190019B1B791A46C5
:1036B000342303FB02F30D4A13440393039B93F853
:1036C0002D30012B04D00A494FF4A570FEF701FB01
:1036D000019B1B681846FFF7B8FD039B022283F885
:1036E0002D2000BF05B05DF804FB00BFE8060020F8
:1036F000A872000000B583B001900091009B03F018
:103700000103002B03D00198FFF71DFE02E0019892
:10371000FFF722FE009B03F00203002B03D0019869
:10372000FFF723FE02E00198FFF728FE00BF03B079
:103730005DF804FB30B589B00390029101920093CB
:103740000023079308238DF81B304FF48273ADF8E4
:103750001830039B002283F82E20019BDB6818465B
:10376000FFF7E6FC034683F00103DBB2002B03D036
:1037700010230793079BAFE1A0490298FFF75BFD79
:10378000039B93F82F30DBB2002B09D0039B9B687F
:1037900019460298FFF745FD11230793079B9BE10C
:1037A000009B03F00403002B06D1009B03F01003E1
:1037B000002B01D1012300E0002303F00103DAB262
:1037C000039B83F82F20039B019A03F10C041546F9
:1037D0000FCD0FC42B682360009B1B0903F001036E
:1037E000002B14BF01230023DAB2039B83F830209F
:1037F000019B5B7819460298FFF760FD4FF48271D8
:103800000298FFF7E7FC4FF492710298FFF7E2FC91
:1038100000990298FFF76EFF019B1B78032B00F2C3
:10382000F38001A252F823F06F390000C93900007B
:103830001539000039380000009B03F01003002BFD
:1038400004D06F4940F2AB10FEF743FA009B03F03F
:103850000803002B04D06A494FF4D670FEF739FAFA
:10386000009B03F00403002B04D0654940F2AD1027
:10387000FEF72FFA019B1B691846FFF759FC034618
:1038800083F00103DBB2002B03D010230793079BC7
:1038900022E14FF480710298FFF73BFD019BD9684C
:1038A000019B5B681A460298FFF715FD4FF4A8715B
:1038B0000298FFF78FFC4FF4B0710298FFF78AFC73
:1038C0004FF4A4710298FFF785FC20210298FFF7BE
:1038D00073FC08210298FFF76FFC00BF4FF4A8713A
:1038E0000298FFF78CFC034683F00103DBB2002B48
:1038F000F4D14FF4A8710298FFF76CFC019B196991
:10390000019B9B681A460298FFF7E5FC039B3D4A22
:103910009A607CE0019BD968019B5B681A4602981B
:10392000FFF7D9FC019B1B691846FFF701FC034612
:1039300083F00103DBB2002B03D010230793079B16
:10394000CAE0019B1969019B9B681A460298FFF720
:10395000D1FC4FF484510298FFF7DBFC039B40F24B
:1039600002229A6020210298FFF726FC4FE0019B7B
:10397000D968019B5B681A460298FFF7ACFC009B74
:1039800003F02003002B11D04FF480710298FFF751
:10399000C0FC039B1B4A9A604FF4A4710298FFF786
:1039A00019FC4FF4A473ADF8183008E04FF400711F
:1039B0000298FFF7AEFC039B40F202229A6020219E
:1039C0000298FFF7F9FB22E0019BD968019B5B6835
:1039D0001A460298FFF78EFC4FF480510298FFF7C9
:1039E00098FC039B40F202229A6000238DF81B3062
:1039F00020210298FFF7E0FB09E000BF02029C01D2
:103A0000A8720000000204000723079300BF009B78
:103A100003F00803002B09D1019B1B78032B05D071
:103A20009DF81B3019460298FFF7C6FB039B1B68E5
:103A3000002B28D0009B03F00403002B03D0039B32
:103A40004FF400729A60039B9B6819460298FFF737
:103A5000E8FB40E04FF492710298FFF7D0FB034679
:103A6000002B10D04FF492710298FFF7B3FB202186
:103A70000298FFF7A1FB14210298FFF79DFB4FF47A
:103A80008273ADF81830BDF8183019460298FFF768
:103A9000B6FB034683F00103DBB2002BDAD10298B8
:103AA000FFF7FEFB0590039B002283F82F20059B68
:103AB000002B04D00598FFF7B0FC07900BE00399AA
:103AC0000298FFF7CBFC034683F00103DBB2002B27
:103AD00001D003230793079B184609B030BD00BFF0
:103AE00000B587B0039002910192039B1B79002BD4
:103AF00007D1029B5B68FF2B03D8029B9B68FF2BBF
:103B000004D91B4940F22F20FEF7E3F80023059368
:103B1000039B1B791A46342303FB02F3154A134413
:103B20000493049B1B68002B08D1029B1B78022B7B
:103B300004D10F4940F23720FEF7CBF8049B1B68F5
:103B4000002B08D1029B1B78032B04D108494FF4AA
:103B50000E70FEF7BEF8039B1968019B029A049849
:103B6000FFF7E8FD0590059B184607B05DF804FBDC
:103B7000A8720000E806002000B58BB00390019207
:103B800000930B468DF80B3000238DF814309DF810
:103B90000B308DF81530009B069300230793019B93
:103BA0000893002309939DF83030002B01D0202288
:103BB00000E0002205AB19460398FFF791FF03468A
:103BC00018460BB05DF804FB00B58BB00390019272
:103BD00000930B468DF80B3001238DF814309DF8BF
:103BE0000B308DF81530009B069300230793019B43
:103BF00008930023099305AB002219460398FFF7A9
:103C00006FFF034618460BB05DF804FB30B58BB070
:103C100001900091009B1B68002B04D1864940F263
:103C20008620FEF756F84FF492710198FFF7E7FAF5
:103C30000346002B2BD04FF492710198FFF7CAFA7C
:103C40004FF482710198FFF7DAFA034683F001031B
:103C5000DBB2002B1BD0009B9B6819460198FFF735
:103C6000EAFA009B02229A60009B9B681946019821
:103C7000FFF7D7FA20210198FFF79EFA1421019847
:103C8000FFF79AFA009B012283F82E20D1E04FF42F
:103C900082710198FFF7B3FA0346002B4AD04FF424
:103CA00082710198FFF796FA009B04AC03F10C05B2
:103CB0000FCD0FC42B682360009B93F82E3083F048
:103CC0000103DBB2002B12D000990198FFF7C6FB6D
:103CD0000346002B14BF01230023DBB283F0010352
:103CE000DBB203F00103DAB2009B83F82E204FF41D
:103CF000B0710198FFF76EFA4FF4AE710198FFF7BB
:103D000069FA009B93F8303083F00103DBB2002B9B
:103D100004D1009B93F82E30002B4CD00021019849
:103D2000FFF7F7FA009B00229A6044490198FFF7D9
:103D300082FA40E04FF4A4710198FFF74BFA009B20
:103D40001B7B002B1BD1009B04AC03F10C050FCD9A
:103D50000FC42B682360009B93F8303083F001037D
:103D6000DBB2002B27D000210198FFF7D2FA009B8D
:103D700000229A6031490198FFF75DFA1BE04FF489
:103D800000710198FFF7C5FA009B40F202229A6089
:103D90002A490198FFF74FFA009B9B681946019842
:103DA000FFF73FFA08210198FFF706FA2021019852
:103DB000FFF702FA3DE00198FFF772FA0990099BBC
:103DC00003F00203002B03D001238DF80C301DE01B
:103DD000099B03F00403002B03D002238DF80C3061
:103DE00014E0099B03F00103002B03D002238DF89C
:103DF0000C300BE0009B93F82E30002B03D00423F3
:103E00008DF80C3002E000238DF80C30009B93F805
:103E1000303083F00103DBB2002B03D0009B002283
:103E200083F82F20009B1B68009A516803AA104654
:103E300098470BB030BD00BFA872000002029C0181
:103E400008B503490348FFF7E1FE00BF08BD00BF06
:103E5000E80600200030004082B003468DF80730AD
:103E60009DF8073003F01F0205499DF907305B09F3
:103E7000012000FA02F241F8232000BF02B070478F
:103E800000E100E082B003468DF807309DF807306E
:103E900003F01F0206499DF907305B09012000FA73
:103EA00002F2203341F8232000BF02B0704700BF68
:103EB00000E100E082B0034600918DF807309DF9E3
:103EC0000730002B0CDA009BDAB20C499DF8073062
:103ED00003F00F03043B5201D2B20B441A7609E0FF
:103EE000009BDAB206499DF907305201D2B20B4469
:103EF00083F8002300BF02B0704700BF00ED00E070
:103F000000E100E082B00190019B1B0B5BB2184600
:103F100002B0704700B583B003460A468DF80730FB
:103F200013468DF806309DF80630072B03D9084953
:103F30006B20FDF7CEFE9DF806209DF90730114657
:103F40001846FFF7B7FF00BF03B05DF804FB00BFE2
:103F5000DC72000000B583B003468DF807309DF990
:103F600007301846FFF778FF00BF03B05DF804FB89
:103F700000B583B003468DF807309DF90730184629
:103F8000FFF780FF00BF03B05DF804FB84B0019031
:103F90000B46ADF80230BDF80230019A13440022FE
:103FA0001A60BDF80230019A13441B680393039B07
:103FB00000BF04B0704782B001900B46ADF80230EC
:103FC000BDF80230019A13441B68002B14BF012373
:103FD0000023DBB2184602B0704782B00190009116
:103FE000019B009AC3F8042300BF02B0704782B05F
:103FF00001900091019BD3F80423009B1340002BF8
:1040000014BF01230023DBB2184602B0704782B010
:1040100001900091019B009AC3F8082300BF02B0F1
:10402000704784B00190019BD3F880340393019BC7
:10403000039AC3F88024039B184604B0704782B0EB
:104040000190019B0422C3F8002500BF02B0704715
:1040500082B00190019B0022C3F8002500BF02B08E
:10406000704784B0039002910192039B019AC3F8B8
:104070001425039B029AC3F80C2500BF04B07047B7
:1040800000B583B001904FF0FF324FF0FF3101983F
:10409000FFF7E7FF00BF03B05DF804FB82B00190BB
:1040A000019BD3F80C35184602B0704782B00190DE
:1040B000019BD3F81435184602B0704782B00190C6
:1040C000019BD3F80835184602B0704782B00190C2
:1040D000019BD3F81035184602B0704784B00390A6
:1040E00002910192039B029AC3F80825039B019A4F
:1040F000C3F8102500BF04B0704700B583B001902D
:104100004FF0FF324FF0FF310198FFF7E7FF00BF9C
:1041100003B05DF804FB82B00190019BD3F8183521
:10412000DBB2184602B0704782B001900B468DF8A2
:1041300003309DF80320019BC3F81C2500BF02B08B
:10414000704782B001900B468DF803309DF8033024
:10415000019A134401221A6000BF02B0704782B076
:1041600001900B468DF8033013468DF802309DF810
:1041700003209DF802301343DBB21A46019BC3F8BB
:104180006C2500BF02B0704782B001900091019B86
:10419000009AC3F8242500BF02B0704700B583B071
:1041A0000190019B1B681F2B04D9054940F2CD10DB
:1041B000FDF78FFD4FF0A043184603B05DF804FBF8
:1041C0000473000000B585B00190084611461A46F8
:1041D00003468DF803300B468DF8023013468DF8F8
:1041E000013001AB1846FFF7D9FF03909DF803207B
:1041F0009DF802305B001A439DF801309B001A4382
:104200009DF818301B0242EA03019DF81C301B0484
:10421000019A1943039B02F5E07243F8221000BF94
:1042200005B05DF804FB00B585B003900023019351
:10423000002300930023012201210398FFF7C2FF0E
:1042400000BF05B05DF804FB00B585B003900B46D8
:104250008DF80B309DF80B30002201920022009265
:10426000002200210398FFF7ADFF00BF05B05DF805
:1042700004FB00B585B00390002301930023009355
:104280000023012200210398FFF79CFF00BF05B027
:104290005DF804FB00B585B0019001AB1846FFF74F
:1042A0007DFF0390019B012202FA03F31946039854
:1042B00000F004F800BF05B05DF804FB82B0019087
:1042C0000091019B009AC3F8082500BF02B0704717
:1042D00000B583B001900091009B1B68B3F1FF3FD4
:1042E00009D0009B1B681846FFF7D4FF009B1B6892
:1042F0001846FFF798FF009B5B68B3F1FF3F05D0BE
:10430000009B5B6800211846FFF79EFF019B1A681F
:10431000009B9B6919461046FFF736FF019B186802
:10432000009B597D009B1B7D1A46FFF718FF019BE0
:104330001868009B1968009B5B681A46FFF791FE9E
:10434000009B1B7D012B22D1009B9B68B3F1FF3F9B
:1043500005D0009B9B6800211846FFF775FF009B66
:10436000DB68B3F1FF3F09D0009BDB681846FFF71D
:1043700091FF009BDB681846FFF755FF019B18680B
:10438000009BD968009B9B681A46FFF7A7FE00BFF9
:1043900003B05DF804FB000000B583B001900B464C
:1043A0008DF80330019B1B684FF48E711846FFF7A0
:1043B000EDFD019B1B684FF4A2711846FFF7E6FD67
:1043C000019B1B680E491846FFF707FE019B1B68FF
:1043D0001846FFF797FD03461A469DF80330194625
:1043E0001046FFF797FD019B1B681846FFF78AFDF3
:1043F00003461846FFF7AEFD00BF03B05DF804FBAF
:104400008000020000B583B00190019B1B68084941
:104410001846FFF7FCFD019B1B681846FFF772FD6D
:1044200003461846FFF7A4FD00BF03B05DF804FB88
:104430008402020000B587B00190019B1B681846FA
:10444000FFF72CFE0590019B1B681846FFF72EFE18
:104450000490019B1B681846FFF730FE0390019BF8
:104460001B681846FFF732FE0290019B1B68184636
:10447000FFF706FE019B1B681846FFF73EFE059BF3
:10448000B3F1FF3F02D00598FFF7F3FE049BB3F1B1
:10449000FF3F02D00498FFF7ECFE029BB3F1FF3F11
:1044A00002D00298FFF7E5FE039BB3F1FF3F02D075
:1044B0000398FFF7DEFE00BF07B05DF804FB0000C5
:1044C00000B587B0039002910192029B002B03D1AB
:1044D0002D49AA20FDF7FDFB039B1B791A462C23CF
:1044E00003FB02F3294A1344049300230593049B1E
:1044F00093F82A30002B03D008230593059B3EE058
:10450000039B1A68039B1B791946214B53F82130F2
:1045100019461046FEF776FD0346002B03D0112303
:104520000593059B2BE002990398FFF7D1FE049BAE
:10453000019A5A60029B1A69049B1A60049B5B688B
:10454000002B05D0029B1B7F19460398FFF724FF21
:10455000039B1B681846FFF772FD049B00229A61BB
:10456000049B0022DA61049B002283F82920049B2B
:1045700000225A61049B012283F82A20059B1846D9
:1045800007B05DF804FB00BF347300001C07002077
:104590006473000000B585B00190019B1B791A4639
:1045A0002C2303FB02F3114A13440393019B1B6862
:1045B0001846FFF74DFD039B5B68002B02D0019866
:1045C000FFF720FF0198FFF735FF019B1B68184696
:1045D000FEF752FD039B002283F82A20039B002252
:1045E0005A6000BF05B05DF804FB00BF1C07002047
:1045F00000B585B0019000914FF48E710198FFF7DE
:10460000C5FC009B9A68009B1B6A13441B788DF8BD
:104610000F30009B1B6A5A1C009B1A629DF80F30DA
:1046200019460198FFF780FD00BF05B05DF804FB57
:1046300000B585B001900091009B5B69039316E083
:10464000009B93F82830DBB2002B01D0002314E04C
:104650004FF48E710198FFF7AEFC034683F001031F
:10466000DBB2002BECD100990198FFF7C1FF009B52
:104670001B6A039A9A42EBD80123184605B05DF8ED
:1046800004FB000000B587B0039002910192039BE8
:104690001B791A462C2303FB02F33C4A1344049370
:1046A000049B93F82A30012B04D039494FF48C70C5
:1046B000FDF70FFB029B002B04D1354940F2191086
:1046C000FDF707FB019B002B04D131494FF48D709E
:1046D000FDF7FFFA039800F05DF80346002B03D0C6
:1046E00011230593059B4CE0049B019A5A61049B9E
:1046F000029A9A60049B00221A62049B002283F8AB
:10470000282000230593039B1B684FF48E711846E5
:10471000FFF73CFC039B1B6808211846FFF711FDBF
:10472000039B1B6804991846FFF762FF049B5B68B4
:10473000002B25D1039B1B6804991846FFF778FFCF
:10474000034683F00103DBB2002B02D00F23059355
:1047500013E000BF039B1B684FF48E711846FFF7F0
:104760002AFC034683F00103DBB2002BF2D1039B4A
:104770001B680C211846FFF7E4FC049B00225A61D9
:10478000059B184607B05DF804FB00BF1C0700201E
:104790003473000082B00190019B1B791946074ACF
:1047A0002C2303FB01F3134414331B68002B14BFA9
:1047B00001230023DBB2184602B070471C0700201B
:1047C00010B582B001900091009B9B69002B08D12D
:1047D0004FF484710198FFF7D9FB0198FFF79BFC18
:1047E00013E04FF484710198FFF7D0FB009BDA6867
:1047F000009B5B6AD4180198FFF78DFC0346237079
:10480000009B5B6A5A1C009B5A6202B010BD00B547
:1048100089B003900291019201238DF81030029B20
:104820000693019B0593039B5B68039A116804AA96
:104830001046984700BF09B05DF804FB00B587B08B
:104840000190009100238DF80830009B0493019B98
:104850009B680393019B00225A61019B5B68019A4C
:10486000116802AA1046984700BF07B05DF804FB24
:1048700000B58BB0019000914FF400710198FFF7E3
:10488000B6FB0346002B39D04FF492710198FFF725
:1048900092FB0346002B31D04FF492710198FFF741
:1048A00075FB4FF401710198FFF7B1FB009B93F882
:1048B000293083F00103DBB2002B03D004210198DF
:1048C000FFF73FFC02238DF80C300198FFF7A9FB9E
:1048D00003460693009B9B690593009BDB6804934A
:1048E000009B00229A61009B0022DA61009B5B68BA
:1048F000009A116803AA1046984752E004210198D3
:10490000FFF775FB0346002B4BD04FF484710198E1
:10491000FFF751FB0346002B43D000990198FFF7A6
:104920004FFF009B9A69009B5B6A9A4239D1009BBA
:10493000DB69002B19D0009BDB680993009B5B6A45
:104940000893009BDA69009B9A61009B1A69009B9F
:10495000DA60009B0022DA61009B00225A62099A09
:1049600008990098FFF753FF1BE0009B93F829304C
:1049700083F00103DBB2002B03D004210198FFF781
:10498000E0FB4FF401710198FFF741FB009B00220F
:104990009A61009B596A009BDB681A460098FFF7F2
:1049A00036FF4FF48E710198FFF705FB0346002B8D
:1049B00024D0009B5B690793009B1B6A079A9A426D
:1049C0000DD9009B93F82830DBB283F00103DBB2F2
:1049D000002B04D000990198FFF70AFE0EE04FF477
:1049E0008E710198FFF7D2FA009B5B69002B05D00E
:1049F000009B5B6919460098FFF720FF4FF4A271F6
:104A00000198FFF7D8FA0346002B1CD04FF4A2718F
:104A10000198FFF7BBFA009B93F82930002B03D0D5
:104A200000210198FFF78DFB009B9B69002B0AD0AA
:104A3000009B00229A61009B596A009BDB681A4622
:104A40000098FFF7E4FE00BF0BB05DF804FB000028
:104A500008B503490348FFF70BFF00BF08BD00BFBF
:104A60001C0700200020004082B003468DF807306C
:104A70009DF8073003F01F0205499DF907305B09D7
:104A8000012000FA02F241F8232000BF02B0704773
:104A900000E100E082B003468DF807309DF8073052
:104AA00003F01F0206499DF907305B09012000FA57
:104AB00002F2203341F8232000BF02B0704700BF4C
:104AC00000E100E082B0034600918DF807309DF9C7
:104AD0000730002B0CDA009BDAB20C499DF8073046
:104AE00003F00F03043B5201D2B20B441A7609E0E3
:104AF000009BDAB206499DF907305201D2B20B444D
:104B000083F8002300BF02B0704700BF00ED00E053
:104B100000E100E082B00190019B03F06043B3F13B
:104B2000005F0CBF01230023DBB2184602B07047C0
:104B300082B00190019B1B0B5BB2184602B070471C
:104B400000B583B003460A468DF8073013468DF84A
:104B500006309DF80630072B03D908496B20FDF776
:104B6000B8F89DF806209DF9073011461846FFF762
:104B7000A9FF00BF03B05DF804FB00BF687300002D
:104B800000B583B003468DF807309DF9073018460D
:104B9000FFF76AFF00BF03B05DF804FB00B583B008
:104BA00003468DF807309DF907301846FFF772FF6E
:104BB00000BF03B05DF804FB84B001900B46ADF874
:104BC0000230BDF80230019A134400221A60BDF889
:104BD0000230019A13441B680393039B00BF04B087
:104BE000704782B001900B46ADF80230BDF802303C
:104BF000019A13441B68002B14BF01230023DBB26E
:104C0000184602B0704782B001900091019BD3F822
:104C10000022009BDB431A40019BC3F8002200BF27
:104C200002B0704782B001900091019B009AC3F8D6
:104C3000042300BF02B0704782B001900091019B35
:104C4000009AC3F8082300BF02B0704784B00190F7
:104C5000019BD3F880340393019B039AC3F880240B
:104C6000039B184604B0704782B00190019B082254
:104C7000C3F8002500BF02B0704782B00190019BCD
:104C80000022C3F8002500BF02B0704784B0039033
:104C900002910192039B029AC3F80C25039B019A8F
:104CA000C3F8142500BF04B0704700B583B001906D
:104CB0004FF0FF324FF0FF310198FFF7E7FF00BFE1
:104CC00003B05DF804FB82B00190019BD3F80C3572
:104CD000184602B0704782B00190019BD3F814359A
:104CE000184602B0704782B00190019BD3F8083596
:104CF000184602B0704782B00190019BD3F810357E
:104D0000184602B0704784B0039002910192039B51
:104D1000029AC3F80825039B019AC3F8102500BF27
:104D200004B0704700B583B001904FF0FF324FF0F0
:104D3000FF310198FFF7E7FF00BF03B05DF804FB08
:104D400082B001900B468DF803309DF80330019A34
:104D5000134401221A6000BF02B0704782B0019074
:104D60000B468DF8033013468DF802309DF8032072
:104D70009DF802301343DBB21A46019BC3F86C2541
:104D800000BF02B0704782B001900091019B009A71
:104D9000C3F8242500BF02B0704784B0039002918D
:104DA0000192029A039BC3F84425039B019AC3F81E
:104DB000482500BF04B0704782B00190019BD3F832
:104DC0004C35184602B0704782B00190019BD3F871
:104DD0003C35184602B0704700B583B00190019B86
:104DE0001B681F2B04D9054940F2CD10FCF771FF59
:104DF0004FF0A043184603B05DF804FB9073000029
:104E000000B585B00190084611461A4603468DF854
:104E100003300B468DF8023013468DF8013001AB9C
:104E20001846FFF7D9FF03909DF803209DF8023044
:104E30005B001A439DF801309B001A439DF818301F
:104E40001B0242EA03019DF81C301B04019A19431E
:104E5000039B02F5E07243F8221000BF05B05DF835
:104E600004FB00B585B00390002301930023009359
:104E70000023012201210398FFF7C2FF00BF05B004
:104E80005DF804FB00B585B003900B468DF80B3040
:104E90009DF80B3000220192002200920022002196
:104EA0000398FFF7ADFF00BF05B05DF804FB00B548
:104EB00085B0039000230193002300930023012277
:104EC00000210398FFF79CFF00BF05B05DF804FBCD
:104ED00000B585B0019001AB1846FFF77DFF039048
:104EE000019B012202FA03F31946039800F004F82B
:104EF00000BF05B05DF804FB82B001900091019BFA
:104F0000009AC3F8082500BF02B0704700B583B00F
:104F100001900091009B1B68B3F1FF3F09D0009BFB
:104F20001B681846FFF7D4FF009B1B681846FFF765
:104F300098FF009B5B68B3F1FF3F05D0009B5B6867
:104F400000211846FFF79EFF019B1A68009B9B6992
:104F500019461046FFF717FF019B1868009B597D03
:104F6000009B1B7D1A46FFF7F9FE019B1868009B0A
:104F70001968009B5B681A46FFF788FE009B1B7D43
:104F8000012B22D1009B9B68B3F1FF3F05D0009B12
:104F90009B6800211846FFF775FF009BDB68B3F1A3
:104FA000FF3F09D0009BDB681846FFF791FF009B8D
:104FB000DB681846FFF755FF019B1868009BD9680E
:104FC000009B9B681A46FFF79EFE00BF03B05DF88A
:104FD00004FB000000B583B001900B468DF8033050
:104FE000019B1B684FF488711846FFF7E5FD019B94
:104FF0001B684FF490711846FFF7DEFD019B1B689C
:105000004FF492711846FFF7D7FD019B1B684FF4D0
:10501000A2711846FFF7D0FD019B1B684FF4AC71DD
:105020001846FFF7C9FD019B1B680F491846FFF79B
:10503000F9FD019B1B681846FFF77AFD03461A46E7
:105040009DF8033019461046FFF77AFD019B1B6857
:105050001846FFF76DFD03461846FFF791FD00BFA8
:1050600003B05DF804FB00BF1003420000B583B03D
:105070000190019B1B6808491846FFF7DDFD019B65
:105080001B681846FFF754FD03461846FFF786FDD8
:1050900000BF03B05DF804FB1003420000B587B009
:1050A0000190019B1B681846FFF70DFE0590019BC0
:1050B0001B681846FFF70FFE0490019B1B681846FB
:1050C000FFF711FE0390019B1B681846FFF713FEC4
:1050D0000290019B1B681846FFF7E7FD019B1B68C8
:1050E0001846FFF71FFE059BB3F1FF3F02D005985E
:1050F000FFF7DDFE049BB3F1FF3F02D00498FFF7FA
:10510000D6FE029BB3F1FF3F02D00298FFF7CFFE1D
:10511000039BB3F1FF3F02D00398FFF7C8FE00BF27
:1051200007B05DF804FB000000B587B00390029162
:105130000192029B002B03D12B49CF20FCF7C9FD24
:10514000039B1B791A461346DB0013449B00274A36
:105150001344049300230593049B93F82030002B01
:1051600003D008230593059B3AE0039B1A68039B31
:105170001B7919461E4B53F8213019461046FDF78E
:1051800041FF0346002B03D011230593059B27E025
:1051900002990398FFF7BAFE049B019A5A60029B9A
:1051A0001A69049B1A60049B5B68002B05D0029B64
:1051B0001B7F19460398FFF70DFF039B1B681846DA
:1051C000FFF752FD049B00229A61049B0022DA61E2
:1051D000049B00225A61049B012283F82020059B36
:1051E000184607B05DF804FBC073000048070020B4
:1051F000F073000000B585B00190019B1B791A4641
:105200001346DB0013449B00244A13440393039B7F
:105210005B68002B02D00198FFF728FF019B1B68F9
:1052200020211846FFF7EFFC019B1B68042118465C
:10523000FFF786FD019B1B684FF4AC711846FFF722
:10524000BBFC019B1B680C211846FFF779FD00BFD2
:10525000019B1B684FF4AC711846FFF7C2FC034674
:1052600083F00103DBB2002BF2D1019B1B681846CF
:10527000FFF703FD0198FFF711FF019B1B6818461C
:10528000FDF7FAFE039B002283F82020039B0022F7
:105290005A6000BF05B05DF804FB00BF480700205E
:1052A00000B589B0039002910192039B1B791A46C5
:1052B0001346DB0013449B00564A13440593059B99
:1052C00093F82030012B04D0534940F22D10FCF705
:1052D00000FD029B002B04D14F494FF49770FCF75F
:1052E000F8FC019B002B04D14B4940F22F10FCF736
:1052F000F0FC039B1B79002B02D1019BFF2B04D9EF
:1053000045494FF49870FCF7E4FC0298FFF702FC63
:10531000034683F00103DBB2002B03D01023079375
:10532000079B73E0039800F079F80346002B03D045
:1053300011230793079B69E0059B019A5A61059B1E
:10534000029A9A6000230793039B1B684FF49071A5
:105350001846FFF731FC039B1B684FF4AC711846ED
:10536000FFF72AFC039B1868059B9968059B5B69FE
:105370001A46FFF712FD039B1B6808211846FFF72A
:10538000DFFC059B5B68002B3FD1039B1B684FF440
:1053900090711846FFF725FC03468DF81B30039BE0
:1053A0001B684FF4AC711846FFF71BFC03468DF8E1
:1053B0001A309DF81B3083F00103DBB2002B06D0BE
:1053C0009DF81A3083F00103DBB2002BDDD19DF88C
:1053D0001A30002B02D00F23079313E0039B1B68A6
:1053E0000C211846FFF7ACFC00BF039B1B684FF471
:1053F000AC711846FFF7F5FB034683F00103DBB2FF
:10540000002BF2D1059B00225A61079B184609B078
:105410005DF804FB48070020C073000082B00190D3
:10542000019B1B791946084A0B46DB000B449B0085
:10543000134414331B68002B14BF01230023DBB279
:10544000184602B0704700BF4807002000B589B079
:1054500003900291019201238DF81030029B069374
:10546000019B0593039B5B68039A116804AA10468D
:10547000984700BF09B05DF804FB00B587B0019004
:10548000009100238DF80830009B0493019B9B68DA
:105490000393019B00225A61019B5B68019A11688A
:1054A00002AA1046984700BF07B05DF804FB00B59C
:1054B00089B0019000914FF492710198FFF791FB30
:1054C0000346002B22D04FF492710198FFF774FB32
:1054D00002238DF808300198FFF7B8FB03460593C7
:1054E0000198FFF771FC03460493009BDB6803936C
:1054F000009B00229A61009B0022DA61009B5B689E
:10550000009A116802AA104698473BE04FF4887150
:105510000198FFF766FB0346002B33D04FF48871E8
:105520000198FFF749FB0198FFF74EFC0790009B9D
:105530009B69079A9A4225D1009BDB69002B17D003
:10554000009BDB68069320210198FFF75CFB009B22
:10555000DA69009B9A61009B1A69009BDA60009BE4
:105560000022DA61069A07990098FFF76FFF09E0B9
:10557000009B00229A61009BDB681A4607990098FD
:10558000FFF764FF4FF4A2710198FFF72AFB03466F
:10559000002B18D04FF4A2710198FFF70DFB009B70
:1055A0009B69002B0FD0009B00229A61009B002278
:1055B000DA610198FFF708FC0146009BDB681A4698
:1055C0000098FFF743FF4FF490710198FFF709FB34
:1055D0000346002B14D04FF490710198FFF7ECFABA
:1055E0000C210198FFF7ACFB009B5B69002B07D0F7
:1055F0000198FFF7E1FB034619460098FFF73DFFCE
:105600004FF4AC710198FFF7ECFA0346002B10D071
:105610004FF4AC710198FFF7CFFA009B5B69002B48
:1056200007D00198FFF7C8FB034619460098FFF71B
:1056300024FF00BF09B05DF804FB000008B5034972
:105640000348FFF734FF00BF08BD00BF4807002034
:105650000020004000B585B00190019B002B0AD0CE
:10566000074B43F001030393019B9B010293039BB0
:105670000298984700E000BF05B05DF804FB00BF4A
:105680008074000000B583B00190019B043318467C
:10569000FEF708F800BF03B05DF804FB00B589B061
:1056A000059003921A460B468DF8133013468DF879
:1056B000123000230793059B181D9DF812209DF8BA
:1056C00013109DF8283000931346039AFEF754FAFE
:1056D0000790079B184609B05DF804FB00B587B03A
:1056E000039001921A460B468DF80B3013468DF845
:1056F0000A3000230593039B181D9DF80A309DF87E
:105700000B10019AFEF760FA0590059B184607B04A
:105710005DF804FB00B583B00190019B002B0AD01B
:105720004FF47A70FFF796FF019B013B0193019BB9
:10573000002BF5D100E000BF03B05DF804FB0000D2
:1057400000B587B06B4600221A605A609A60DA6032
:105750001B2300931A2301934FF0CC73029302236F
:105760008DF80C306946002300220A48FDF744FBFF
:105770000590059B0493049B002B04D0064A30211E
:105780000498FCF7B3F90348FFF77CFF00BF07B0AC
:105790005DF804FB5C000020F473000000B58BB0E2
:1057A0000120FCF73FF900210020FBF7CFF809901A
:1057B000099B002B04D08C4A3E210998FCF796F9EE
:1057C000FBF746F8894A8A4BD31ADB081B0443F0DF
:1057D000030388491846FBF791FB00BFFBF7EAFB80
:1057E0000346002BFAD1FFF7ABFF834B1B881B0A44
:1057F0009BB2DAB2814B1A707F4B1B88DAB27F4BB7
:105800005A700020FCF792F807E07D49522000F022
:105810004AFF03461A467B4B1A60794B1B78002BD4
:10582000F3D0724A724BD31ADB081B0443F0030314
:1058300075491846FBF762FB00BFFBF7BBFB03464D
:10584000002BFAD16C4B40F20F121A806A4B1B8866
:105850001B0A9BB2DAB2694B1A70674B1B88DAB22B
:10586000664B5A70002300930223644A292167483B
:10587000FFF714FF0890089B0793079B002B04D0A9
:10588000594A56210798FCF731F901235C4A29212E
:105890005E48FFF723FF0890089B0693069B002BAA
:1058A00004D0514A58210698FCF720F94F4A504B32
:1058B000D31ADB081B0443F00303514A12785449FE
:1058C0001846FBF729FB00BFFBF774FB0346002BD0
:1058D000FAD1494B4FF488721A80474B1B881B0A38
:1058E0009BB2DAB2454B1A70434B1B88DAB2434B7A
:1058F0005A70002300930223404A29214348FFF7AE
:10590000CDFE0890089B0593059B002B04D0364ADA
:1059100061210598FCF7EAF80123394A29213B481F
:10592000FFF7DCFE0890089B0493049B002B04D037
:105930002D4A63210498FCF7D9F82C4A2C4BD31A32
:10594000DB081B0443F003032D4A12783049184644
:10595000FBF7E2FA00BFFBF72DFB0346002BFAD161
:10596000292000F083FD3220FFF7D4FE292000F02B
:1059700032FE1E4A1E4BD31ADB081B0443F00303FE
:1059800024491846FBF7BAFA00BFFBF713FB03469E
:10599000002BFAD1C820FFF7BDFE0DF10F03194609
:1059A000292000F048FE9DF80F30012B04D103ABF5
:1059B0001946292000F098FE292000F0C7FD0B4A67
:1059C0000B4BD31ADB081B0443F00303BDF80C2078
:1059D00011491846FBF7A0FA00BFFBF7EBFA0346A4
:1059E000002BFAD1D6E700BFF4730000F468000082
:1059F000D4680000247400007000002074070020A8
:105A00006C07002070070020447400005C00002038
:105A100050740000607400007074000000B583B022
:105A20001F4B0193019B02221A61019B02225A61C2
:105A3000019B1C4A9A61019B1B4ADA61019B4FF44E
:105A400000721A62019B00229A62019B00225A6234
:105A5000019B0022DA62019B124A9A64019B134A5D
:105A6000DA64019B10221A65019B00229A65019B52
:105A700000225A65019B0022DA65019B07330C491D
:105A8000184600F0D5FE019B0A49184600F0D0FEEA
:105A9000019B20229A7100BF03B05DF804FB00BF98
:105AA0007408002088740000EC080020EC0A002034
:105AB000947400009874000000B589B003900291BE
:105AC000019200230693039BDB680593039B1B69EC
:105AD0000493049A059B9A4205D9049A059BD31A0C
